:100000000C942A000C943C000C943C000C943C0092
:100010000C943C000C943C000C943C000C943C0070
:100020000C943C000C943C000C943C000C943C0060
:100030000C943C000C943C000C943C000C943C0050
:100040000C943C000C943C000C943C000C943C0040
:100050000C943C0011241FBECFE5D4E0DEBFCDBF21
:1000600010E0A0E6B0E001C01D92A336B107E1F7B1
:100070000E9465000C9407020C9400001BBA80ECEF
:1000800087B983E886B90895369A349BFECF349AAF
:1000900024B135B1C90108950F931F93CF93DF9316
:1000A000C0E0D0E00E944400080F191F2196CE3115
:1000B000D105C1F7C8016EE170E00E94DE01CB01FD
:1000C000DF91CF911F910F9108957F928F929F9210
:1000D000AF92BF92CF92DF92EF92FF920F931F9356
:1000E000CF93DF931FEF17BB11BA1ABA80E090E0ED
:1000F0000E94F2018093600081E090E00E94F20192
:100100008093610082E090E00E94F201809362009F
:100110001BBA80EC87B983E886B918BB0E944C00F3
:100120006C0100E010E0E3E09E2E7AE2E72EF12C75
:1001300062E0862E7724739450EFA52E50E2B52E00
:100140000E9444009C012C193D0937FF03C03095E3
:1001500021953F4FC901880F991F880F991F820F62
:10016000931FEC0180B38E3F91F480B388BB7092F3
:1001700060006091600080E090E00E94FA0180EDF4
:1001800097E0F7013197F1F70197D9F738C080B3BD
:100190008D3F91F480B388BB8092600060916000D5
:1001A00080E090E00E94FA0180ED97E0F70131973E
:1001B000F1F70197D9F723C080B38B3F91F480B357
:1001C00088BB909260006091600080E090E00E94A7
:1001D000FA0180ED97E0F7013197F1F70197D9F730
:1001E0000EC080B38F3759F480B388BB1092610082
:1001F000109262000E944C006C0100E010E08091BF
:100200006000813069F5C333D10508F4D5C0C53E1F
:10021000D10508F4CBC081E0C739D80710F483E0DA
:10022000C5C082E0C934D80710F487E0BFC082E0BF
:10023000CB3FD80710F48FE0B9C083E0CD3AD807A0
:1002400010F48FE1B3C084E0CF35D80710F48FE30A
:10025000ADC0C551D54010F08FEFA8C08FE7A6C044
:1002600080916000823009F082C00C171D0708F0F1
:100270007BC0C333D10508F476C0809161008160F2
:10028000809361006091610081E090E00E94FA013A
:10029000C53ED10508F467C08091610082608093FB
:1002A00061006091610081E090E00E94FA0181E0CC
:1002B000C739D80708F457C08091610084608093E3
:1002C00061006091610081E090E00E94FA0182E0AB
:1002D000C934D80708F447C08091610088608093D2
:1002E00061006091610081E090E00E94FA0182E08B
:1002F000CB3FD807C0F1809161008061809361009D
:100300006091610081E090E00E94FA0183E0CD3AC3
:10031000D80748F18091610080628093610060910C
:10032000610081E090E00E94FA0184E0CF35D807B7
:10033000D0F08091610080648093610060916100E1
:1003400081E090E00E94FA0185E0C531D80758F0BD
:10035000809161008068809361006091610081E01C
:1003600090E00E94FA018E01809161001FC080918F
:1003700060008330E9F4CD52D140B0F0809162004A
:100380008F5F809362006091620082E090E00E9443
:10039000FA0180916200809588BB80ED97E0F701BB
:1003A0003197F1F70197D9F780916200809588BB6A
:1003B000C5010197F1F7C4CE80E0F8CFAA1BBB1BA3
:1003C00051E107C0AA1FBB1FA617B70710F0A61B55
:1003D000B70B881F991F5A95A9F780959095BC0176
:1003E000CD010895E199FECF9FBB8EBBE09A99277E
:1003F0008DB30895262FE199FECF9FBB8EBB2DBBF9
:100400000FB6F894E29AE19A0FBE01960895F89417
:02041000FFCF1C
:00000001FF
