:100000000C942A000C9434000C9434000C943400AA
:100010000C9434000C9434000C9434000C94340090
:100020000C9434000C9434000C9434000C94340080
:100030000C9434000C9434000C9434000C94340070
:100040000C9434000C9434000C9434000C94340060
:100050000C94340011241FBECFE5D4E0DEBFCDBF29
:100060000E9444000C948C000C9400001BBA80E4A5
:1000700087B983E886B90895369A349BFECF349ABF
:1000800024B135B1C9010895CF93DF938FEF87BBBA
:100090001ABA1BBA80E487B983E886B912BA8EEF20
:1000A00088BBC0EBD4EA0E943C009C01245333403F
:1000B00037FF03C0309521953F4F2333310554F16D
:1000C0002833310514F481E01FC02D33310514F4B9
:1000D00083E01AC02234310514F487E015C02734B8
:1000E000310514F48FE010C02C34310514F48FE185
:1000F0000BC02635310514F48FE306C025363105D3
:1001000014F08FEF01C08FE7809588BBCE01019777
:0C011000F1F7C9CF80E0F8CFF894FFCFE2
:00000001FF
