:100000000C942A000C9434000C9434000C943400AA
:100010000C9434000C9434000C9434000C94340090
:100020000C9434000C9434000C9434000C94340080
:100030000C9434000C9434000C9434000C94340070
:100040000C9434000C9434000C9434000C94340060
:100050000C94340011241FBECFE5D4E0DEBFCDBF29
:100060000E946C000C941F010C9400001BBA80E4E9
:1000700087B983E886B90895369A349BFECF349ABF
:1000800024B135B1C9010895EF92FF920F931F93E8
:10009000CF93DF93C0E0D0E09AE2E92EF12C0E94EA
:1000A0003C00080F191F84EC99E0F7013197F1F734
:1000B0000197D9F72196C830D10589F7980183E0D7
:1000C000369527958A95E1F7C901DF91CF911F9168
:1000D0000F91FF90EF9008958F929F92AF92BF92F1
:1000E000CF92DF92EF92FF921F93CF93DF938FEF28
:1000F00087BB11BA1ABA1BBA90E497B993E896B9BC
:1001000088BB0E9444005C01EE24FF24CC24DD2443
:1001100010E04AE2842E912C0E943C00EC01CA19A6
:10012000DB09D7FF03C0D095C195DF4F80B38E3F69
:1001300019F480B388BB15C080B38D3F19F480B328
:1001400088BB41C080B38F3741F480B388BB0E9425
:1001500044005C01CC24DD2410E081E0E816F104C9
:1001600071F5C932D10508F468C0C833D10510F45F
:1001700081E01FC0C635D10510F483E01AC0C53632
:10018000D10510F487E015C0C838D10510F48FE010
:1001900010C0CB3AD10510F48FE10BC0CF3BD10595
:1001A00010F48FE306C0C93CD10510F08FEF01C0F9
:1001B0008FE7809588BB31E0E32EF12C36C082E0DA
:1001C000E816F10491F5CC16DD0610F0E60126C024
:1001D000C93CD10518F11160C83DD105F8F0126095
:1001E00081E0C436D807D0F0146081E0CA3AD8075D
:1001F000A8F0186082E0C633D80780F0106182E072
:10020000CA39D80758F0106282E0CE3FD80730F0E4
:10021000106483E0CE34D80708F01068812F8095F1
:1002200088BB6E0122E0E22EF12C80ED97E0F40114
:100230003197F1F70197D9F76FCF80E0BACFF894F3
:02024000FFCFEE
:00000001FF
