:100000000C942A000C9439000C9434000C943400A5
:100010000C9434000C9434000C9434000C94340090
:100020000C9434000C9434000C9434000C94340080
:100030000C9434000C9434000C9434000C94340070
:100040000C9434000C9434000C9434000C94340060
:100050000C94340011241FBECFE5D4E0DEBFCDBF29
:100060000E945D000C9491000C9400008EEF88BB00
:1000700008951F920F920FB60F9211242F933F9362
:100080008F939F93EF93FF938EEF88BB80E29EE464
:1000900029E130E0F9013197F1F70197D9F78AB7F3
:1000A0008F7B8ABFFF91EF919F918F913F912F910D
:1000B0000F900FBE0F901F9018958FEF87BB11BA4E
:1000C0007FEF60E850EC40EE30EF28EF9CEF80B31C
:1000D0008E3F11F488BBFBCF80B38D3F11F498BBEA
:1000E000F6CF80B38B3F11F428BBF1CF80B3873FAD
:1000F00011F438BBECCF80B38F3E11F448BBE7CF8F
:1001000080B38F3D11F458BBE2CF80B38F3B11F425
:1001100068BBDDCF80B38F3711F418BAD8CF78BB66
:06012000D6CFF894FFCFDA
:00000001FF
