:100000000C942A000C9434000C9434000C943400AA
:100010000C9434000C9434000C9434000C94340090
:100020000C9434000C9434000C9434000C94340080
:100030000C9434000C9434000C9434000C94340070
:100040000C9434000C9434000C9434000C94340060
:100050000C94340011241FBECFE5D4E0DEBFCDBF29
:100060000E9444000C94F0000C9400001BBA80E441
:1000700087B983E886B90895369A349BFECF349ABF
:1000800024B135B1C9010895CF92DF92EF92FF926A
:100090001F93CF93DF938FEF87BB11BA1ABA1BBAA6
:1000A00090E497B993E896B988BB10E0C0E0D0E03F
:1000B000EE24FF248AE2C82ED12C0E943C009C0131
:1000C0002453334037FF03C0309521953F4F80B311
:1000D0008E3F19F480B388BB16C080B38D3F29F4DE
:1000E00080B388BBC2E0D0E041C080B38F3741F419
:1000F00080B388BB10E0C0E0D0E0EE24FF2436C01F
:10010000C130D10599F5293C31050CF467C081E077
:100110002431380714F481E024C081E02233380709
:1001200014F483E01EC081E02035380714F487E022
:1001300018C081E02E36380714F48FE012C081E039
:100140002C38380714F48FE10CC081E02A3A3807C4
:1001500014F48FE306C02C52324014F08FEF01C02C
:100160008FE7809588BBC1E0D0E030C0C230D105B8
:1001700069F5E216F3063CF5293C31051CF11160E6
:10018000283D3105FCF0126081E024363807D4F0B8
:10019000146081E02A3A3807ACF0186082E0263318
:1001A000380784F0106182E02A3938075CF0106269
:1001B00082E02E3F380734F0106483E02E34380795
:1001C0000CF010687901812F809588BB80ED97E055
:1001D000F6013197F1F70197D9F76FCF80E0C1CFE2
:0401E000F894FFCFC1
:00000001FF
